:020000040800F2
:1000000000C00020AD39000881390008853900089A
:10001000893900088D390008913900080000000076
:1000200000000000000000000000000095390008FA
:1000300099390008000000009D390008A139000826
:10004000F5390008F5390008F5390008F5390008D8
:10005000F5390008F5390008F5390008F5390008C8
:10006000F5390008F5390008F53900087132000843
:10007000F5390008F5390008F5390008F5390008A8
:10008000F5390008F5390008F5390008F539000898
:10009000F5390008F5390008F5390008F539000888
:1000A000F5390008F5390008F5390008F539000878
:1000B000F5390008F5390008F5390008F539000868
:1000C000F5390008F5390008F5390008F539000858
:1000D000F5390008F5390008F5390008F539000848
:1000E000F5390008F5390008F5390008F539000838
:1000F000F5390008F5390008F5390008F539000828
:10010000F5390008F5390008F5390008F539000817
:10011000F5390008F5390008F5390008F539000807
:10012000F5390008F5390008F5390008F5390008F7
:1001300000000000000000000000000000000000BF
:1001400000000000000000000000000000000000AF
:10015000000000000000000000000000000000009F
:10016000000000000000000000000000000000008F
:10017000000000000000000000000000000000007F
:10018000000000000000000000000000000000006F
:10019000000000000000000000000000000000005F
:1001A000000000000000000000000000000000004F
:1001B000000000000000000000000000000000003F
:1001C000000000000000000000000000000000002F
:1001D000000000000000000000000000000000001F
:0401E0005FF8E0F1F3
:1001E800044B05481B1A062B02D9044B03B11847C8
:1001F800704700BF270000202400002000000000F6
:1002080005490648091A891001EBD171491002D035
:10021800034B03B118477047240000202400002036
:100228000000000010B5064C237843B9FFF7D8FF4B
:10023800044B13B10448AFF300800123237010BDB1
:100248002400002000000000443A000808B5084BCC
:100258001BB108480849AFF300800848036813B980
:10026800BDE80840CCE7064B002BF9D09847F7E7E4
:1002780000000000443A0008280000202400002064
:100288000000000081F0004102E000BF83F000435D
:1002980030B54FEA41044FEA430594EA050F08BF19
:1002A80090EA020F1FBF54EA000C55EA020C7FEADD
:1002B800645C7FEA655C00F0E2804FEA5454D4EB5A
:1002C8005555B8BF6D420CDD2C4480EA020281EA24
:1002D800030382EA000083EA010180EA020281EA5C
:1002E8000303362D88BF30BD11F0004F4FEA0131AE
:1002F8004FF4801C4CEA113102D0404261EB4101BD
:1003080013F0004F4FEA03334CEA133302D0524242
:1003180063EB430394EA050F00F0A780A4F10104FE
:10032800D5F1200E0DDB02FA0EFC22FA05F2801838
:1003380041F1000103FA0EF2801843FA05F359411E
:100348000EE0A5F120050EF1200E012A03FA0EFC9D
:1003580028BF4CF0020C43FA05F3C01851EBE371C7
:1003680001F0004507D54FF0000EDCF1000C7EEBE4
:1003780000006EEB0101B1F5801F1BD3B1F5001F22
:100388000CD349085FEA30004FEA3C0C04F1010441
:100398004FEA445212F5800F80F09A80BCF1004F6A
:1003A80008BF5FEA500C50F1000041EB045141EAEC
:1003B800050130BD5FEA4C0C404141EB010111F4ED
:1003C800801FA4F10104E9D191F0000F04BF014698
:1003D8000020B1FA81F308BF2033A3F10B03B3F176
:1003E80020020CDA0C3208DD02F1140CC2F10C0206
:1003F80001FA0CF021FA02F10CE002F11402D8BF64
:10040800C2F1200C01FA02F120FA0CFCDCBF41EA2F
:100418000C019040E41AA2BF01EB0451294330BDFE
:100428006FEA04041F3C1CDA0C340EDC04F11404DB
:10043800C4F1200220FA04F001FA02F340EA0300B2
:1004480021FA04F345EA030130BDC4F10C04C4F1F8
:10045800200220FA02F001FA04F340EA03002946D8
:1004680030BD21FA04F0294630BD94F0000F83F422
:10047800801306BF81F480110134013D4EE77FEA05
:10048800645C18BF7FEA655C29D094EA050F08BF51
:1004980090EA020F05D054EA000C04BF1946104632
:1004A80030BD91EA030F1EBF0021002030BD5FEA76
:1004B800545C05D14000494128BF41F0004130BD9E
:1004C80014F580043CBF01F5801130BD01F00045F2
:1004D80045F0FE4141F470014FF0000030BD7FEA65
:1004E800645C1ABF194610467FEA655C1CBF0B4660
:1004F800024650EA013406BF52EA033591EA030F77
:1005080041F4002130BD00BF90F0000F04BF00216E
:10051800704730B54FF4806404F132044FF00005A1
:100528004FF0000150E700BF90F0000F04BF00211A
:10053800704730B54FF4806404F1320410F0004580
:1005480048BF40424FF000013EE700BF42004FEA7B
:10055800E2014FEA31014FEA02701FBF12F07F43F8
:1005680093F07F4F81F06051704792F0000F14BFF5
:1005780093F07F4F704730B54FF4607401F0004539
:1005880021F0004120E700BF50EA010208BF704790
:1005980030B54FF000050AE050EA010208BF704785
:1005A80030B511F0004502D5404261EB41014FF4EE
:1005B800806404F132045FEA915C3FF4DCAE4FF0F2
:1005C80003025FEADC0C18BF03325FEADC0C18BFD9
:1005D800033202EBDC02C2F1200300FA03FC20FA2A
:1005E80002F001FA03FE40EA0E0021FA02F1144477
:1005F800C1E600BF70B54FF0FF0C4CF4E06C1CEA8C
:1006080011541DBF1CEA135594EA0C0F95EA0C0F00
:1006180000F0DEF82C4481EA030621EA4C5123EA73
:100628004C5350EA013518BF52EA033541F48011A2
:1006380043F4801338D0A0FB02CE4FF00005E1FB55
:1006480002E506F00042E0FB03E54FF00006E1FB9F
:1006580003569CF0000F18BF4EF0010EA4F1FF04E2
:10066800B6F5007F64F5407404D25FEA4E0E6D4122
:1006780046EB060642EAC62141EA55514FEAC52033
:1006880040EA5E504FEACE2EB4F1FD0C88BFBCF5AF
:10069800E06F1ED8BEF1004F08BF5FEA500E50F160
:1006A800000041EB045170BD06F0004646EA010126
:1006B80040EA020081EA0301B4EB5C04C2BFD4EB58
:1006C8000C0541EA045170BD41F480114FF0000E51
:1006D800013C00F3AB8014F1360FDEBF002001F0BF
:1006E800004170BDC4F10004203C35DA0C341BDC39
:1006F80004F11404C4F1200500FA05F320FA04F00B
:1007080001FA05F240EA020001F0004221F000413E
:1007180010EBD37021FA04F642EB06015EEA430EB1
:1007280008BF20EAD37070BDC4F10C04C4F12005E1
:1007380000FA04F320FA05F001FA04F240EA020094
:1007480001F0004110EBD37041F100015EEA430E65
:1007580008BF20EAD37070BDC4F1200500FA05F285
:100768004EEA020E20FA04F301FA05F243EA020304
:1007780021FA04F001F0004121FA04F220EA020013
:1007880000EBD3705EEA430E08BF20EAD37070BD59
:1007980094F0000F0FD101F00046400041EB010139
:1007A80011F4801F08BF013CF7D041EA060195F01B
:1007B800000F18BF704703F00046520043EB0303D5
:1007C80013F4801F08BF013DF7D043EA06037047C2
:1007D80094EA0C0F0CEA135518BF95EA0C0F0CD0CD
:1007E80050EA410618BF52EA4306D1D181EA030113
:1007F80001F000414FF0000070BD50EA410606BF0D
:100808001046194652EA430619D094EA0C0F02D151
:1008180050EA013613D195EA0C0F05D152EA033696
:100828001CBF104619460AD181EA030101F00041B4
:1008380041F0FE4141F470014FF0000070BD41F0FD
:10084800FE4141F4780170BD70B54FF0FF0C4CF4D7
:10085800E06C1CEA11541DBF1CEA135594EA0C0FF6
:1008680095EA0C0F00F0A7F8A4EB050481EA030E43
:1008780052EA03354FEA013100F088804FEA03332A
:100888004FF0805545EA131343EA12634FEA0222F8
:1008980045EA111545EA10654FEA00260EF00041B9
:1008A8009D4208BF964244F1FD0404F5407402D20B
:1008B8005B084FEA3202B61A65EB03055B084FEA9C
:1008C80032024FF480104FF4002CB6EB020E75EB99
:1008D800030E22BFB61A754640EA0C005B084FEAC1
:1008E8003202B6EB020E75EB030E22BFB61A75463E
:1008F80040EA5C005B084FEA3202B6EB020E75EB89
:10090800030E22BFB61A754640EA9C005B084FEA00
:100918003202B6EB020E75EB030E22BFB61A75460D
:1009280040EADC0055EA060E18D04FEA051545EAFC
:1009380016754FEA06164FEAC30343EA52734FEAA5
:10094800C2025FEA1C1CC0D111F4801F0BD141EA1E
:1009580000014FF000004FF0004CB6E711F4801F83
:1009680004BF01430020B4F1FD0C88BFBCF5E06F63
:100978003FF6AFAEB5EB030C04BFB6EB020C5FEA73
:10098800500C50F1000041EB045170BD0EF0004EC8
:100998004EEA113114EB5C04C2BFD4EB0C0541EAFA
:1009A800045170BD41F480114FF0000E013C90E6F7
:1009B80045EA060E8DE60CEA135594EA0C0F08BFBB
:1009C80095EA0C0F3FF43BAF94EA0C0F0AD150EABA
:1009D80001347FF434AF95EA0C0F7FF425AF10464D
:1009E80019462CE795EA0C0F06D152EA03353FF475
:1009F800FDAE1046194622E750EA410618BF52EAF2
:100A080043067FF4C5AE50EA41047FF40DAF52EAC5
:100A180043057FF4EBAE12E74FF0FF3C06E000BF62
:100A28004FF0010C02E000BF4FF0010C4DF804CD6F
:100A38004FEA410C7FEA6C5C4FEA430C18BF7FEA2F
:100A48006C5C1BD001B050EA410C0CBF52EA430C5D
:100A580091EA030F02BF90EA020F0020704710F1DD
:100A6800000F91EA030F58BF994208BF90422CBF6C
:100A7800D8176FEAE37040F0010070474FEA410C65
:100A88007FEA6C5C02D150EA013C07D14FEA430C83
:100A98007FEA6C5CD6D152EA033CD3D05DF8040BF4
:100AA800704700BF8446104662468C461946634626
:100AB80000E000BF01B5FFF7B7FF002848BF10F1FD
:100AC800000F01BD4DF808EDFFF7F4FF0CBF012042
:100AD80000205DF808FB00BF4DF808EDFFF7EAFFBE
:100AE80034BF012000205DF808FB00BF4DF808ED79
:100AF800FFF7E0FF94BF012000205DF808FB00BF6E
:100B08004DF808EDFFF7CEFF94BF012000205DF8F7
:100B180008FB00BF4DF808EDFFF7C4FF34BF012004
:100B280000205DF808FB00BF4FEA410212F50012F1
:100B380015D211D56FF47873B3EB625212D94FEA1C
:100B4800C12343F0004343EA505311F0004F23FA06
:100B580002F018BF404270474FF00000704750EA5B
:100B6800013005D111F0004008BF6FF00040704718
:100B78004FF00000704700BF4FEA4102B2F1E04376
:100B880024BFB3F5001CDCF1FE5C0DD901F0004C6C
:100B98004FEAC0024CEA5070B2F1004F40EB8300BC
:100BA80008BF20F00100704711F0804F21D113F1E8
:100BB8003872BCBF01F00040704741F480114FEA21
:100BC8005252C2F11802C2F1200C10FA0CF320FAAA
:100BD80002F018BF40F001004FEAC1234FEAD323C7
:100BE80003FA0CFC40EA0C0023FA02F34FEA430331
:100BF800CCE77FEA625307D150EA01331EBF4FF0BA
:100C0800FE4040F44000704701F0004040F0FE40D4
:100C180040F40000704700BF80F0004002E000BFD1
:100C280081F0004142001FBF5FEA410392EA030FCF
:100C38007FEA226C7FEA236C6AD04FEA1262D2EB19
:100C48001363C1BFD218414048404140B8BF5B421E
:100C5800192B88BF704710F0004F40F4000020F0B7
:100C68007F4018BF404211F0004F41F4000121F0CD
:100C78007F4118BF494292EA030F3FD0A2F1010217
:100C880041FA03FC10EB0C00C3F1200301FA03F155
:100C980000F0004302D5494260EB4000B0F5000F78
:100CA80013D3B0F1807F06D340084FEA310102F137
:100CB8000102FE2A51D2B1F1004F40EBC25008BFE9
:100CC80020F0010040EA03007047490040EB0000B3
:100CD80010F4000FA2F10102EDD1B0FA80FCACF1E2
:100CE800080CB2EB0C0200FA0CF0AABF00EBC250E1
:100CF80052421843BCBFD0401843704792F0000FCF
:100D080081F4000106BF80F400000132013BB5E721
:100D18004FEA41037FEA226C18BF7FEA236C21D097
:100D280092EA030F04D092F0000F08BF08467047FC
:100D380090EA010F1CBF0020704712F07F4F04D1CA
:100D4800400028BF40F00040704712F100723CBFDD
:100D580000F50000704700F0004343F0FE4040F407
:100D6800000070477FEA226216BF08467FEA2363C5
:100D78000146420206BF5FEA412390EA010F40F4B0
:100D8800800070474FF0000304E000BF10F00043FC
:100D980048BF40425FEA000C08BF704743F09643E3
:100DA80001464FF000001CE050EA010208BF7047FE
:100DB8004FF000030AE000BF50EA010208BF704785
:100DC80011F0004302D5404261EB41015FEA010C9A
:100DD80002BF84460146002043F0B64308BFA3F192
:100DE8008053A3F50003BCFA8CF2083AA3EBC25374
:100DF80010DB01FA02FC634400FA02FCC2F1200293
:100E0800BCF1004F20FA02F243EB020008BF20F0C9
:100E18000100704702F1200201FA02FCC2F120022F
:100E280050EA4C0021FA02F243EB020008BF20EA24
:100E3800DC7070474FF0FF0C1CEAD0521EBF1CEA52
:100E4800D15392EA0C0F93EA0C0F6FD01A4480EA40
:100E5800010C400218BF5FEA41211ED04FF0006329
:100E680043EA501043EA5111A0FB01310CF0004055
:100E7800B1F5000F3EBF490041EAD3715B0040EA7B
:100E8800010062F17F02FD2A1DD8B3F1004F40EB4B
:100E9800C25008BF20F00100704790F0000F0CF01E
:100EA800004C08BF49024CEA502040EA51207F3AE2
:100EB800C2BFD2F1FF0340EAC250704740F40000BD
:100EC8004FF00003013A5DDC12F1190FDCBF00F0AE
:100ED80000407047C2F10002410021FA02F1C2F15C
:100EE800200200FA02FC5FEA310040F1000053EAF8
:100EF8004C0308BF20EADC70704792F0000F00F046
:100F0800004C02BF400010F4000F013AF9D040EA4B
:100F18000C0093F0000F01F0004C02BF490011F4DF
:100F2800000F013BF9D041EA0C018FE70CEAD153DD
:100F380092EA0C0F18BF93EA0C0F0AD030F0004C5D
:100F480018BF31F0004CD8D180EA010000F0004011
:100F5800704790F0000F17BF90F0004F084691F0CF
:100F6800000F91F0004F14D092EA0C0F01D1420209
:100F78000FD193EA0C0F03D14B0218BF084608D1D2
:100F880080EA010000F0004040F0FE4040F400001C
:100F9800704740F0FE4040F4400070474FF0FF0CAF
:100FA8001CEAD0521EBF1CEAD15392EA0C0F93EAF6
:100FB8000C0F69D0A2EB030280EA010C49024FEA48
:100FC800402037D04FF0805343EA111143EA101301
:100FD8000CF000408B4238BF5B0042F17D024FF4B9
:100FE800000C8B4224BF5B1A40EA0C00B3EB510F94
:100FF80024BFA3EB510340EA5C00B3EB910F24BF7D
:10100800A3EB910340EA9C00B3EBD10F24BFA3EB01
:10101800D10340EADC001B0118BF5FEA1C1CE0D1C9
:10102800FD2A3FF650AF8B4240EBC25008BF20F07C
:10103800010070470CF0004C4CEA50207F32C2BFD0
:10104800D2F1FF0340EAC250704740F400004FF06D
:101058000003013A37E792F0000F00F0004C02BF9E
:10106800400010F4000F013AF9D040EA0C0093F068
:10107800000F01F0004C02BF490011F4000F013BC2
:10108800F9D041EA0C0195E70CEAD15392EA0C0F2A
:1010980008D142027FF47DAF93EA0C0F7FF470AF62
:1010A800084676E793EA0C0F04D14B023FF44CAFA5
:1010B80008466EE730F0004C18BF31F0004CCAD13A
:1010C80030F000427FF45CAF31F000437FF43CAF76
:1010D8005FE700BF4FF0FF3C06E000BF4FF0010C98
:1010E80002E000BF4FF0010C4DF804CD4FEA40027A
:1010F8004FEA41037FEA226C18BF7FEA236C11D0C4
:1011080001B052EA530C18BF90EA010F58BFB2EB76
:10111800030088BFC81738BF6FEAE17018BF40F0F6
:10112800010070477FEA226C02D15FEA402C05D1AA
:101138007FEA236CE4D15FEA412CE1D05DF8040B2F
:10114800704700BF844608466146FFE70FB5FFF7C2
:10115800C9FF002848BF10F1000F0FBD4DF808ED7A
:10116800FFF7F4FF0CBF012000205DF808FB00BF6B
:101178004DF808EDFFF7EAFF34BF012000205DF8C5
:1011880008FB00BF4DF808EDFFF7E0FF94BF012012
:1011980000205DF808FB00BF4DF808EDFFF7D2FF0F
:1011A80094BF012000205DF808FB00BF4DF808ED52
:1011B800FFF7C8FF34BF012000205DF808FB00BF1F
:1011C80082B0084B1B68084AA2FB03235B0A00FB9A
:1011D80003F0019000BF019B5A1E0192002BF9D128
:1011E80002B0704700000020D34D621070B582B085
:1011F8000446036813F0010F6BD0A84B5B6803F03B
:101208000C03042B0AD0A54B5B6803F00C03082BD6
:101218000DD1A24B5B6813F4803F08D09F4B1B682D
:1012280013F4003F55D06368002B52D1B8E16368CE
:10123800B3F5803F05D1994A136843F480331360AE
:1012480026E063B903F1804303F504331A6822F4F6
:1012580080321A601A6822F480221A6018E0B3F506
:10126800A02F0CD103F18043A3F53C331A6842F454
:1012780080221A601A6842F480321A6008E0874BAC
:101288001A6822F480321A601A6822F480221A60DE
:1012980063687BB100F0FCFF054605E000F0F8FF4D
:1012A800401B642800F27E817C4B1B6813F4003FCE
:1012B800F4D00EE000F0ECFF054605E000F0E8FF92
:1012C800401B642800F27081744B1B6813F4003FC4
:1012D800F4D1236813F0020F50D0704B5B6813F001
:1012E8000C0F0AD06D4B5B6803F00C03082B16D16A
:1012F8006A4B5B6813F4803F11D1684B1B6813F08D
:10130800020F03D02369012B40F05081634A136810
:1013180023F0F803616943EAC10313602EE02369EF
:10132800D3B101225E4B1A6000F0B2FF054605E01A
:1013380000F0AEFF401B022800F23A81574B1B68B1
:1013480013F0020FF4D0554A136823F0F8036169CB
:1013580043EAC103136011E00022514B1A6000F008
:1013680097FF054605E000F093FF401B022800F2B6
:1013780021814A4B1B6813F0020FF4D1236813F044
:10138800080F29D0A369ABB10122464B1A6000F0BF
:101398007FFF054605E000F07BFF401B022800F2B6
:1013A8000B813E4B5B6A13F0020FF4D00120FFF76C
:1013B80007FF11E000223B4B1A6000F069FF054669
:1013C80005E000F065FF401B022800F2F780334B70
:1013D8005B6A13F0020FF4D1236813F0040F00F0D6
:1013E80089802E4BDB6913F0805F0BD12B4BDA69B8
:1013F80042F08052DA61DB6903F080530193019B6C
:10140800012500E00025284B1B6813F4807F13D1C9
:10141800254A136843F48073136000F039FF0646C9
:1014280005E000F035FF801B642800F2C9801E4BE0
:101438001B6813F4807FF4D0E368012B05D1174AA9
:10144800136A43F00103136222E063B903F1804396
:1014580003F504331A6A22F001021A621A6A22F0AA
:1014680004021A6214E0052B09D10C4B1A6A42F0E7
:1014780004021A621A6A42F001021A6208E0074B73
:101488001A6A22F001021A621A6A22F004021A6227
:10149800E368CBB100F0FCFE06460FE00010024006
:1014A80000004242800442420070004000F0F0FE1A
:1014B800801B41F28833984200F28480494B1B6AB2
:1014C80013F0020FF2D00FE000F0E2FE064606E04D
:1014D80000F0DEFE801B41F28833984274D8414BFD
:1014E8001B6A13F0020FF3D125B13E4AD36923F0EA
:1014F8008053D361E369002B68D03A4A526802F0FE
:101508000C02082A64D0022B37D10022364B1A600D
:1015180000F0BEFE054604E000F0BAFE401B0228BB
:1015280058D8304B1B6813F0007FF5D1236AB3F508
:10153800803F06D12B494B6823F40032A36813433C
:101548004B602848436823F47411236A626A134382
:101558000B4343600122244B1A6000F099FE0446B5
:1015680004E000F095FE001B022835D81D4B1B68CF
:1015780013F0007FF5D0002031E000221A4B1A60EA
:1015880000F086FE044604E000F082FE001B0228FC
:1015980024D8144B1B6813F0007FF5D100201EE0FF
:1015A80001201CE003201AE0032018E0012016E0C7
:1015B800032014E0032012E0032010E003200EE0D3
:1015C80003200CE003200AE0032008E0002006E0E6
:1015D800012004E0032002E0032000E0032002B021
:1015E80070BD00BF001002406000424230B486B0B7
:1015F800164D02AC28686968AA68EB680FC42B8A84
:10160800ADF80430124B5A6802F00C03082B19D1BC
:10161800C2F3834306A90B4413F8103C12F4803F2D
:101628000CD00B4A5268C2F340420A4412F8140C18
:10163800084AB2FBF0F003FB00F004E0064800FBA8
:1016480003F000E0034806B030BC70475C3A00087D
:101658000010024000127A0000093D0070B55C4B92
:101668001B6803F007038B420BD2594A136823F017
:1016780007030B431360136803F007038B4240F022
:101688009780036813F0020F06D0524C636823F06A
:10169800F0028368134363600D460446036813F041
:1016A800010F4DD04268012A05D14A4B1B6813F43B
:1016B800003F0DD17EE0022A05D1464B1B6813F08E
:1016C800007F05D178E0434B1B6813F0020F75D0FB
:1016D80040494B6823F0030313434B6000F0D8FDE7
:1016E80006466368012B0ED106E000F0D1FD801B91
:1016F80041F28833984263D8364B5B6803F00C0399
:10170800042BF2D11CE0022B15D106E000F0C0FD3D
:10171800801B41F28833984254D82E4B5B6803F003
:101728000C03082BF2D10BE000F0B2FD801B41F254
:101738008833984248D8274B5B6813F00C0FF3D1D5
:10174800234B1B6803F00703AB420AD9204A1368EE
:1017580023F007032B431360136803F00703AB421E
:1017680034D1236813F0040F06D01A494B6823F4C8
:10177800E062E36813434B60236813F0080F07D057
:10178800144A536823F46053216943EAC103536040
:10179800FFF72CFF0F4B5B68C3F303130E4AD35CB0
:1017A800D8400E4B1860002000F042FD002070BDAC
:1017B800012070BD012070BD012070BD012070BDE9
:1017C800032070BD032070BD032070BD012070BDD3
:1017D8000020024000100240703A0008000000207B
:1017E800014B1868704700BF0000002030B4036A3E
:1017F80023F001030362036A4468826922F07302DA
:101808000D682A4323F002038D682B43104DA8422C
:1018180003D005F50065A84205D123F00803CD687B
:101828002B4323F004030A4DA84203D005F50065B5
:10183800A84205D124F440744D692C438D692C438A
:10184800446082614A684263036230BC704700BFEB
:10185800002C014030B4036A23F480730362036AE6
:101868004468C26922F073020D682A4323F40073A6
:101878008D6843EA0523124DA84203D005F500659B
:10188800A84206D123F40063CD6843EA052323F474
:1018980080630B4DA84203D005F50065A84207D127
:1018A80024F440544D6944EA05148D6944EA05144A
:1018B8004460C2614A68C263036230BC704700BFBB
:1018C800002C014030B4036A23F480530362036A96
:1018D8004468C26922F4E6420D6842EA052223F40C
:1018E80000538D6843EA0533094DA84203D005F536
:1018F8000065A84204D124F480444D6944EA851463
:101908004460C2614A680264036230BC704700BF29
:10191800002C014010B4036A046A24F00104046234
:10192800846924F0F00444EA021223F00A031943FC
:10193800826101625DF8044B704700BF10B4036A0E
:1019480023F0100303628469036A24F4704444EAB0
:10195800023223F0A00343EA0111826101625DF8BB
:10196800044B704710B4846824F47F4442EA03238C
:1019780019430C4384605DF8044B704710B50C465E
:101988000268936823F0700349680B4323F0070348
:1019980021680B4393606368502B1FD002D8402BFB
:1019A8000BD010BD602B1FD0702B22D10068E168CE
:1019B800A2682369FFF7D6FF10BD0368196A1A6A7F
:1019C80022F001021A620268936923F0F003246985
:1019D80043EA041393610368196210BD0068A168A3
:1019E8002269FFF797FF10BD0068A1682269FFF719
:1019F800A5FF10BD704700BF38B590F83C30012BEB
:101A080018D00446012580F83C50022380F83D3068
:101A1800FFF7B4FF2268D36823F04003D36022683D
:101A2800D36823F48043D36084F83D50002084F8C1
:101A38003C0038BD022038BD0368244A904212D0C9
:101A480002F5006290420ED0B0F1804F0BD0A2F5A3
:101A58009832904207D002F58062904203D002F596
:101A68008062904203D123F070034A681343174AF7
:101A7800904212D002F5006290420ED0B0F1804F31
:101A88000BD0A2F59832904207D002F580629042BE
:101A980003D002F58062904203D123F44073CA68F0
:101AA800134323F080034A69134303608B68C362BE
:101AB8000B688362054B984203D003F50063984294
:101AC80001D10B690363012343617047002C014076
:101AD800C0B110B5044690F83D3013F0FF0F04D1A3
:101AE800002380F83C30FFF785FF022384F83D305F
:101AF800214651F8040BFFF79FFF012384F83D307E
:101B0800002010BD0120704730B4036A23F0100391
:101B18000362036A4468826922F4E6420D6842EA75
:101B2800052223F020038D6843EA0513114DA842CE
:101B380003D005F50065A84206D123F08003CD68DF
:101B480043EA051323F040030A4DA84203D005F5E4
:101B58000065A84207D124F440644D6944EA85042D
:101B68008D6944EA8504446082614A68826303623D
:101B780030BC7047002C014038B590F83C30012B40
:101B880066D00D460446012380F83C30022380F8D5
:101B98003D300C2A55D8DFE802F0075454541A5443
:101BA80054542E54545441000068FFF71FFE226815
:101BB800936943F0080393612268936923F004034F
:101BC8009361226891692B690B43936139E000683E
:101BD800FFF79AFF2268936943F4006393612268D0
:101BE800936923F48063936122689369296943EABE
:101BF8000123936125E00068FFF72CFE2268D36972
:101C080043F00803D3612268D36923F00403D36146
:101C18002268D1692B690B43D36112E00068FFF792
:101C280051FE2268D36943F40063D3612268D36903
:101C380023F48063D3612268D369296943EA0123C5
:101C4800D361012384F83D30002084F83C0038BD7E
:101C5800022038BD10B401238B40046A24EA030330
:101C68000362036A8A401A4302625DF8044B7047B4
:101C780010B5044600680122FFF7ECFF23680C4A00
:101C8800934205D002F50062934203D1012202E09B
:101C9800012200E000221AB15A6C42F400425A6450
:101CA8002268136843F001031360002010BD00BFD1
:101CB800002C014010B404238B40046A24EA030377
:101CC8000362036A8A401A4302625DF8044B704754
:101CD80010B5044600680422FFF7ECFF2268536C35
:101CE80043F4004353642268136843F0010313600C
:101CF800002010BD90F83C30012B22D0012380F841
:101D08003C30CB6823F440728B68134323F4806221
:101D18004B68134323F400620B68134323F4805287
:101D28000B69134323F400524B6913438A6923F464
:101D38004043134302685364002380F83C3018463C
:101D480070470220704700BF90F83C30012B21D02B
:101D580030B4012280F83C20022380F83D3004682A
:101D6800636823F070036360046865680B682B433D
:101D780063600468A36823F08003A3600468A5680F
:101D88004B682B43A36080F83D20002380F83C304B
:101D9800184601E00220704730BC704790F82430A4
:101DA800012B27D0012380F8243003689A6812F0A9
:101DB800010F10D1124A926812F0010F0BD1114A8B
:101DC800934208D110B45A6822F470240A68224356
:101DD8005A60002309E0836A43F0200383620123E9
:101DE800002280F8242018467047002280F824201A
:101DF800184601E0022070475DF8044B704700BFA9
:101E0800002801400024014000F00700064AD3687A
:101E180023F4E0631B041B0C43EA002040F0BF607E
:101E280040F40030D060704700ED00E030B4164B4D
:101E3800DC68C4F30224C4F10705042D28BF042577
:101E4800231D062B01D9033C00E00024012303FADB
:101E580005F5013D2940A140A340013B1A400A4332
:101E6800002806DA00F00F001201D2B2074B1A540C
:101E780007E01201D2B200F1604000F5614080F83D
:101E8800002330BC704700BF00ED00E014ED00E017
:101E9800410900F01F0001238340024A42F8213023
:101EA800704700BF00E100E00138B0F1807F0AD23E
:101EB800064B5860F021064A82F8231000209860EB
:101EC80007221A6070470120704700BF10E000E049
:101ED80000ED00E0042805D1054A136843F0040327
:101EE80013607047024A136823F0040313607047B5
:101EF80010E000E0704700BF08B5FFF7FBFF08BD22
:101F0800F0B583B000273C46E2E00122A2400B680E
:101F18001340934240F0DB804D68122D2DD00BD832
:101F2800022D27D003D85DB3012D1ED035E0032D37
:101F380030D0112D1BD030E0684EB54220D008D8E3
:101F4800A6F58016B5421BD006F58036B54224D1D9
:101F580016E0634EB54213D006F58036B5420FD071
:101F6800A6F58016B54218D10AE0CF6815E0CF680B
:101F7800043712E0CF6808370FE0CF680C370CE061
:101F88008D684DB1012D02D10261082705E042613B
:101F9800082702E0002700E00427FF2B01D8844629
:101FA80001E000F1040CFF2B02D84FEA840E03E095
:101FB800A4F1080E4FEA8E0EDCF800600F2202FA38
:101FC8000EF226EA020507FA0EF22A43CCF80020A0
:101FD8004A6812F0805F7AD0424A956945F0010557
:101FE8009561926902F001020192019AA208961C79
:101FF8003D4D55F8266004F0030E4FEA8E0E0F256E
:1020080005FA0EF526EA0506384DA8421FD005F553
:102018008065A84219D005F58065A84213D005F55A
:102028008065A8420DD005F58065A84207D005F562
:102038008065A84201D105250AE0062508E00425A7
:1020480006E0032504E0022502E0012500E0002562
:1020580005FA0EF535430232234E46F822504A68F7
:1020680012F4803F04D0224D2A681A432A6004E003
:102078001F4D2A6822EA03022A604A6812F4003FC8
:1020880004D01B4D6A681A436A6004E0184D6A68F8
:1020980022EA03026A604A6812F4801F04D0144DD1
:1020A800AA681A43AA6004E0114DAA6822EA03024A
:1020B800AA604A6812F4001F04D00D4DEA68134361
:1020C800EB6004E00A4DEA6822EA0303EB6001349E
:1020D8000F2C7FF61AAF03B0F0BD00BF000021102F
:1020E80000003110001002400000014000080140CB
:1020F8000004014083680B4201D001207047002092
:10210800704700BF0AB10161704709040161704757
:10211800C3685940C160704770B582B0044603680F
:1021280013F0010F5CD03E4BDB6913F0805F0BD1DD
:102138003B4BDA6942F08052DA61DB6903F0805385
:102148000193019B012600E00026364B1B6813F41F
:10215800807F12D1334A136843F48073136000F010
:1021680097F8054604E000F093F8401B64284FD820
:102178002C4B1B6813F4807FF5D0294B1B6A13F492
:10218800407321D0626802F440729A421CD0244AFB
:10219800136A23F44070244901250D6000250D6061
:1021A800106213F0010F0FD000F072F8054606E038
:1021B80000F06EF8401B41F2883398422AD8184B39
:1021C8001B6A13F0020FF3D015490B6A23F440720F
:1021D800636813430B621EB1CB6923F08053CB6154
:1021E800236813F0020F06D00D494B6823F44042D0
:1021F800A36813434B60236813F0100F0CD00849F1
:102208004B6823F48002636913434B60002004E0A9
:10221800032002E0032000E0002002B070BD00BFF0
:10222800001002400070004040044242704700BF66
:1022380010B50446074B1B680748A0FB033080090C
:10224800FFF732FE4FF0FF3021460022FFF7EEFD88
:10225800002010BD00000020D34D621008B5074AC9
:10226800136843F0100313600320FFF7CDFD00202F
:10227800FFF7DEFFFFF7DAFF002008BD002002406D
:10228800024A136801331360704700BF74000020CE
:10229800014B1868704700BF7400002030B583B048
:1022A8000190FFF7F5FF0546019CB4F1FF3F00D010
:1022B8000134FFF7EDFF401BA042FAD303B030BD55
:1022C800704700BF70B483B00023019390F82430A6
:1022D800012B00F08380012380F824304B68062B03
:1022E8000DD80668756B03EB8303053B1F229A40E4
:1022F80025EA02040A689A40224372631CE00C2B08
:102308000DD80668356B03EB8303233B1F229A40E5
:1023180025EA02040A689A40224332630CE0066800
:10232800F56A03EB8303413B1F229A4025EA020426
:102338000A689A402243F2620B68092B0DD9066895
:10234800F56803EB43031E3B07229A4025EA020483
:102358008A689A402243F2600BE00668356903EB0D
:10236800430307229A4025EA02048A689A402243D6
:1023780032610B68103B012B26D80368194A934237
:102388001CD19A6812F4000F20D19A6842F4000216
:102398009A600B68102B1BD1134B1B68134AA2FBC6
:1023A80003239B0C03EB83035B00019302E0019B77
:1023B800013B0193019B002BF9D10AE0836A43F0AA
:1023C80020038362012304E0002302E0002300E0ED
:1023D8000023002280F82420184600E0022003B0E1
:1023E80070BC7047002401400000002083DE1B43BE
:1023F80030B583B00023019303689A6812F0010F87
:102408002FD19A6842F001029A60174B1B68174A4D
:10241800A2FB03239B0C019302E0019B013B019368
:10242800019B002BF9D10446FFF732FF054611E066
:10243800FFF72EFF401B02280CD9A36A43F01003B4
:10244800A362E36A43F00103E362002384F82430C3
:10245800012007E023689B6813F0010FE8D00020F3
:1024680000E0002003B030BD0000002083DE1B43E5
:1024780090F82430012B70D010B50446012380F861
:102488002430FFF7B5FF0346002861D1A26A22F481
:10249800407222F0010242F48072A262226830493E
:1024A8008A4205D1A1F58061496811F4702F0ED1D7
:1024B800A16A21F48011A162516811F4806F1CD0C7
:1024C800A16A21F4405141F48051A16215E0A16A4A
:1024D80041F48011A16223498A4203D001F5806149
:1024E8008A420AD11F49496811F4806F05D0A16A50
:1024F80021F4405141F48051A162A16A11F4805F36
:1025080004D0E16A21F00601E16201E00021E16204
:10251800002184F824106FF002011160226891688C
:1025280001F46021B1F5602F0DD10D498A4205D122
:10253800A1F58061496811F4702F04D1916841F4C4
:10254800A001916007E0916841F48011916002E078
:10255800002284F82420184610BD0220704700BFCE
:10256800002801400024014038B503689A6812F039
:10257800010F1ED004469A6822F001029A60FFF704
:1025880087FE05460EE0FFF783FE401B022809D9A7
:10259800A36A43F01003A362E36A43F00103E36212
:1025A800012038BD23689B6813F0010FEBD1002090
:1025B80038BD002038BD00BF002800F0888070B505
:1025C8000446836A23B9C36280F82430FFF778FE93
:1025D8002046FFF7C9FFA36A13F0100F71D1002836
:1025E8006FD1A36A23F4885323F0020343F0020354
:1025F800A36262682168374B994206D1E369B3F553
:10260800402F03D14FF4002300E0E3691343E5684A
:1026180043EA4503A268B2F5807F04D0012A05D1B8
:102628004FF4807203E04FF4807200E00022666984
:10263800012E0FD135B9A569013D42EA453242F470
:10264800006207E0A56A45F02005A562E56A45F045
:102658000105E5624D6825F469452A434A60216809
:102668008D681D4A2A401A438A60A268B2F5807FA5
:1026780001D0012A03D12269013A110500E00021A5
:102688002568EA6A22F470020A43EA6222689168BD
:10269800124A0A40934208D10023E362A36A23F056
:1026A800030343F00103A36270BDA36A23F012037E
:1026B80043F01003A362E36A43F00103E3620120DD
:1026C80070BDA36A43F01003A362012070BD01200E
:1026D800704700BF003C0140FDF7E1FFFE0E1FFF01
:1026E8000F4B1A6842F001021A6059680D4A0A40F5
:1026F8005A601A6822F0847222F480321A601A68CA
:1027080022F480221A605A6822F4FE025A604FF4BA
:102718001F029A604FF00062034B9A60704700BF37
:10272800001002400000FFF800ED00E02DE9F04F36
:1027380089B0854B9A6942F004029A619A6902F05D
:1027480004020192019A9A6942F008029A619A6910
:1027580002F008020292029A9A6942F010029A6103
:102768009B6903F010030393039B4FF0000ACDF815
:1027780014A0CDF818A04FF00208CDF81C804FF037
:10278800200B0DEB0B0444F810BD70482146FFF7F1
:10279800B7FB402304936D482146FFF7B1FB802522
:1027A80004956A482146FFF7ABFB4FF48066049610
:1027B80067482146FFF7A4FB4FF40063049364487D
:1027C8002146FFF79DFB4FF4805704976048214648
:1027D800FFF796FB04975F482146FFF791FBCDF87A
:1027E80010805C482146FFF78BFB4FF00109CDF8BC
:1027F80014900427049755482146FFF781FB1023BE
:10280800049354482146FFF77BFBCDF810B051489C
:102818002146FFF775FB1123059304964B48214683
:10282800FFF76EFB4FF40063049348482146FFF717
:1028380067FBCDF818A003230593CDF81090444802
:102848002146FFF75DFBCDF8109042482146FFF77F
:1028580057FB4FF0080ACDF810A03D482146FFF776
:102868004FFBCDF810803A482146FFF749FB10236B
:10287800049337482146FFF743FBCDF810B034489E
:102888002146FFF73DFB049731482146FFF738FB07
:10289800CDF810A02F482146FFF732FB04972D48AA
:1028A8002146FFF72DFBCDF81480402304932848D8
:1028B8002146FFF725FB049525482146FFF720FB15
:1028C8004FF4807ACDF810A021482146FFF718FB75
:1028D800049520482146FFF713FBCDF810901B48BC
:1028E8002146FFF70DFBCDF8108018482146FFF769
:1028F80007FBCDF810A017482146FFF701FB4FF45E
:102908000073049313482146FFF7FAFA0496114816
:102918002146FFF7F5FA4FF4005304930B4821467C
:10292800FFF7EEFA4FF48043049308482146FFF777
:10293800E7FA4FF40043049304482146FFF7E0FA0E
:1029480009B0BDE8F08F00BF00100240000C014044
:1029580000100140000801402DE9F04F99B0754B77
:102968009A6942F400629A619A6902F400620192DB
:10297800019A9A6942F400529A619B6903F40053E0
:102988000293029B6C4EDFF8B891C6F800900024C1
:1029980074604FF02008C6F808804FF4FA6BC6F848
:1029A8000CB034617461B4613046FFF791F81023BC
:1029B80016931794304616A9FFF7C6F960230F93AC
:1029C8001094119408271297139414944FF40073D9
:1029D800159330460FA92246FFF7CEF830460FA9C7
:1029E8000422FFF7C9F830460FA93A46FFF7C4F8A2
:1029F8004FF4006308934FF4806309930A94CDF869
:102A08002C800C940D940E9430460DEB0801FFF7C2
:102A180071F94A4DDFF82CA1C5F800A06C60C5F823
:102A28000880C5F80CB02C616C61AC612846FFF7D2
:102A38004FF8CDF8588080231793284616A9FFF73A
:102A480083F9049418A9052341F8543D2846FEF754
:102A5800D3FF60230F931094119412971394149436
:102A68004FF40073159328460FA92246FFF784F800
:102A780028460FA90422FFF77FF828460FA93A46EF
:102A8800FFF77AF84FF4006308934FF480630993D3
:102A98000A94CDF82C800C940D940E9428460DEBD6
:102AA8000801FFF727F9DAF8443023F40043CAF89D
:102AB8004430D9F8443023F40043C9F84430284658
:102AC8002146FFF7D5F828460421FFF7D1F8284614
:102AD8003946FFF7CDF828462146FFF7F9F828468A
:102AE8000421FFF7F5F828463946FFF7F1F8304694
:102AF8002146FFF7BDF830460421FFF7B9F8304604
:102B08003946FFF7B5F830462146FFF7E1F8304679
:102B18000421FFF7DDF830463946FFF7D9F82B686E
:102B280001221A633268136843F00103136019B075
:102B3800BDE8F08F00100240FC00002008020020D1
:102B4800002C0140003401402DE9F04186B0424E8E
:102B5800B36943F40073B361B36903F4007300937A
:102B6800009B3E4C3E4B23604FF48073A3600025CE
:102B7800E56065614FF44023E36165604FF0050847
:102B8800C4F810802046FFF717FD364A536843F40F
:102B98008023536006A94FF4C02341F8043D204622
:102BA800FFF7FCF8012304930E22029203932046B8
:102BB80002A9FFF787FB029502270397204602A97F
:102BC800FFF780FB04970B27029703230393204604
:102BD80002A9FFF777FB0C230293042303932046F3
:102BE80002A9FFF76FFB0723049310230293CDF884
:102BF8000C80204602A9FFF765FB2268936843F41E
:102C0800000343F480739360936843F00103936077
:102C1800736943F001037361736903F0010301935E
:102C2800019B114B1D60C3F80480104A9A60104A3A
:102C3800DA6040F6A2221A601A6842F001021A60AD
:102C4800384629462A46FFF7F1F83846FFF720F9B3
:102C580006B0BDE8F08100BF00100240C4010020AA
:102C68000024014000000140080002404C240140BB
:102C7800F4010020F0B585B0284B9A6942F48062CF
:102C88009A619B6903F480630093009B244C254B55
:102C980023604FF48073A3600023E36063614FF403
:102CA8006022E2616360052626612046FFF784FC06
:102CB800012303930F2201920293204601A9FFF7F3
:102CC80001FB0D23019302250295204601A9FFF778
:102CD800F9FA03950A23019303270297204601A9CD
:102CE800FFF7F0FA01950423029320460DEB030148
:102CF800FFF7E8FA0723039301970296204601A9F4
:102D0800FFF7E0FA23689A6842F480729A609A683A
:102D180042F001029A6005B0F0BD00BF0010024009
:102D280078000020002801400D4B1B681333262B28
:102D380014D810B500240B4B1C700B4B1C7005E00D
:102D48000A4B1C706420FFF7A9FA0134072CF7DD41
:102D5800074820210022FFF7D5F9FEE7704700BF9A
:102D680060020020480000205C0000206400002071
:102D78000008014030B597B002250C950123109347
:102D8800102311931395002414944FF46013159392
:102D98000CA8FEF72BFA0F230793089509944FF414
:102DA80080630A930B9407A82946FEF757FC019500
:102DB8004FF44043039301A8FFF7AEF9FEF710FD67
:102DC800084BA3FB00308009FFF76EF80420FFF7DB
:102DD80081F84FF0FF3021462246FFF727F817B059
:102DE80030BD00BFD34D62102DE9F04782B0FFF728
:102DF80035FABF4CA36943F00103A361A36903F04B
:102E080001030193019B0320FEF7FEFF6FF00B0007
:102E180000210A46FFF70AF86FF00A0000210A4667
:102E2800FFF704F86FF0090000210A46FEF7FEFFDD
:102E38006FF0040000210A46FEF7F8FF6FF0030068
:102E480000210A46FEF7F2FF6FF0010000210A4652
:102E5800FEF7ECFF4FF0FF3000210A46FEF7E6FFD1
:102E6800FFF788FF636923F001036361FFF75EFCE6
:102E7800FFF772FDFFF768FEFFF7FCFE9D48202173
:102E88000122FFF73FF99C48FFF7F2FA9B48FFF74A
:102E9800EFFA082405E09A4B1C706420FFF7FEF94E
:102EA800013C002CF7DA0024954B1C70954804214E
:102EB8000122FFF727F9944B1B8A0122934B1A70C2
:102EC800A04601E0D0462C460520FFF7E7F98E4ED4
:102ED800F08980B2FDF728FB7BA3D3E90023FDF737
:102EE800D5F97BA3D3E90023FDF7AEFCFDF71CFE63
:102EF8008146874B1860708A80B2FDF715FB72A374
:102F0800D3E90023FDF7C2F971A3D3E90023FDF744
:102F18009BFCFDF709FE05467E4B1860F3899BB2C2
:102F2800B3F5FA6F94BF002301237B4A1370738AA9
:102F38009BB2B3F5FA6F94BF00230123774A13704D
:102F48000022774B1A60DFF804A2DAF80000FDF7D8
:102F5800EBFA61A3D3E90023FDF74CFB06460F46C5
:102F68004846FDF7E1FA5EA3D3E90023FDF742FBEB
:102F780002460B4630463946FDF78AF9FDF7D4FD7F
:102F88008146CAF80000DFF8C0A1DAF80000FDF7B2
:102F9800CBFA51A3D3E90023FDF72CFB06460F46D5
:102FA8002846FDF7C1FA4EA3D3E90023FDF722FB1B
:102FB80002460B4630463946FDF76AF9FDF7B4FD7F
:102FC800CAF80000FDF7B0FA0022564BFDF712FBD5
:102FD80006460F460022544BFDF79CFD80B930464B
:102FE800394641A3D3E90023FDF776FD28B93046D9
:102FF8003946FDF799FD824604E0DFF830A101E08B
:103008004FF47A7A4846FDF78FFA0022454BFDF7D0
:10301800F1FA06460F460022434BFDF77BFD78B9CF
:103028003046394630A3D3E90023FDF755FD28B9CA
:1030380030463946FDF778FD054603E03B4D01E093
:103048004FF47A7504F132039D4214DA323CA542FA
:1030580011DD08F132039A450DDAA8F13208C245AC
:1030680009DD2F4B1B68042B05D8314BC3F800A092
:103078006B42304A13601F480221FFF73BF880B1CA
:103088002D4B1B686BB92D4B1B6853B900221F4B86
:103098001A7018480221FFF72DF80028F9D1FFF718
:1030A80043FE274B1C6820462649FEF761F8002896
:1030B8004ED0254B1B681333262B49D8FFF734FE17
:1030C8005CE000BFAFF300800000000000FE9F40FE
:1030D8000000008041600040CDCCCCCCCCCCEC3F93
:1030E8009A9999999999B93F0000000000408FC0BA
:1030F8000010024000080140C401002078000020B0
:1031080064000020000C0140F40100205C00002055
:1031180068020020540200206402002050020020AF
:10312800040000200000E03F00408F4018FCFFFF33
:103138006800002060000020540000204C0000209F
:1031480018000020CCCC0642600200205802002063
:1031580020463A49FEF70CF858B120463849FEF7A0
:1031680025F830B10522374B1A700622364B1A70F3
:1031780004E00023334A1370334A137085EAE57379
:10318800A3EBE573322B05DC8AEAEA73A3EBEA7357
:10319800322B03DD00222D4B1A6003E02B4A136803
:1031A80001331360294B1A68294B9A4201D9FFF75A
:1031B800BBFD284B9A6812F0200F0CBF012700278F
:1031C8009A6812F0400F0CBF012200229B6813F08E
:1031D800800F0CBF012600261F498B6813F4806FEF
:1031E8000CBF012000208B6813F4006F0CBF012472
:1031F80000248B6813F4805F02EB460207EB42065B
:103208000CBF02230023234400EB4304134B1B7819
:10321800B34206D00F484FF48061FEF779FF0F4B99
:103228001E700F4B1B78A3423FF44CAE09484FF475
:103238000061FEF76DFF0A4B1C7043E600000C426C
:10324800CCCC064264000020480000204802002040
:1032580080380100000C01400010014040000020AF
:1032680041000020000000000222814B5A60814B7F
:103278001B68B3F57A7F3ADA01337E4A13607E4AD7
:10328800938899B27D4803680B4403EBD3735B10B2
:103298000360D38899B27A4803680B4403EBD3736D
:1032A8005B100360138899B2764803680B4403EBFC
:1032B800D3735B100360538899B2734803680B4457
:1032C80003EBD3735B100360538999B26F480368AB
:1032D8000B4403EBD3735B10036013899AB26C49F8
:1032E8000B68134403EBD3735B100B6070472DE935
:1032F800F041684B1C68684BA3FB04239B094FF4FF
:103308007A7202FB134313BB644D2868FDF71EF95C
:1033180051A3D3E90023FDF76DF906460F46564B36
:10332800988980B2FDF72EFD5D49FDF783FDFDF715
:103338000DF94BA3D3E90023FDF75CF902460B46D0
:1033480030463946FCF7A4FFFDF716FC28604A4BC7
:10335800588980B24D4B1D68401BFDF7E5F842A324
:10336800D3E90023FDF746F900220023FDF7B4FB5B
:1033780080B1414B588980B2401BFDF7D5F83AA37C
:10338800D3E90023FDF736F90022464BFDF7A4FBED
:10339800B8B90FE0384B588980B2401BFDF7C4F824
:1033A80031A3D3E90023FDF725F900223E4BFDF7B1
:1033B800B1FB30B93D4B1B68052B02D83C4B1B7841
:1033C8002BB93C4A536C23F40043536404E0394A54
:1033D800536C43F400435364274B188980B22C4B39
:1033E8001D68401BFDF7A0F81FA3D3E90023FDF7D4
:1033F80001F900220023FDF76FFB80B11E4B1889ED
:1034080080B2401BFDF790F817A3D3E90023FDF71E
:10341800F1F80022234BFDF75FFBB8B90FE0164B1C
:10342800188980B2401BFDF77FF80FA3D3E900236A
:10343800FDF7E0F800221C4BFDF76CFB30B91B4B85
:103448001B68052B02D81A4B1B78BBBB1A4A536C56
:1034580023F40043536436E0AE47E17A14AEEF3FFD
:103468007B14AE47E17A843F7B14AE47E17A943F00
:103478000000024044000020F40100200C0000205D
:103488000800002014000020100000201C0000206C
:10349800200000206C000020D34D6210180000208E
:1034A80017B9CE3C00002EC000002E4004000020BA
:1034B8005C00002000340140002C0140914A536C0C
:1034C80043F40043536490498B6813F0200F0CBFFA
:1034D800012200228B6813F0400F0CBF0123002348
:1034E800896811F0800F0CBF01250025874988687D
:1034F80010F4806F0CBF012000208E6816F4006F56
:103508000CBF01270027896811F4805F03EB45038E
:1035180002EB43037E4EF35C7E490B600B6803F1BC
:1035280002030B600D687C4B83FB05E2A2EBE5729E
:1035380002EB42024FEA4202A5EB02020A600CBF0C
:10354800022200223A4400EB4202B05C734A106047
:10355800106802301060106883FB0053A3EBE0731F
:1035680003EB43035B00C31A136009686C48838844
:103578009BB26C4A12689A1AC3889BB26A48006860
:103588001B1A052918D8DFE801F003070A0D1013E4
:10359800D31A664A136012E0644B1A600FE0634B5B
:1035A8001A600CE0614A136009E0604A136006E0A3
:1035B8009B1A5E4A136002E000225C4B1A600134D9
:1035C8005B4B1C605B4B1868A8B15B4BA3FB0423E7
:1035D8001B0B5A4A12680132B3FBF2F102FB11339A
:1035E8004BB9B4FBF0F300FB13444CB95448102119
:1035F800FEF78EFD04E0524810210022FEF782FDFE
:10360800504BD3F800E0434B1B68052B22D8DFE86A
:1036180003F003080E12161C7446CEF1000E0025A6
:103628001CE0CEF1000574464FF0000E16E0CEF116
:103638000005002412E0CEF1000400250EE0CEF1D2
:10364800000475464FF0000E08E07546CEF1000EF6
:10365800002403E04FF0000E744675463A4B1E688E
:103668002E4B1B68052B1AD8DFE803F003070B0E57
:10367800111532467642002114E071423246002686
:1036880010E0714200220DE0724200210AE072420D
:103698003146002606E031467642002202E0002646
:1036A80032463146274B1B68002B51DD274B1868E3
:1036B800184B1F680537184B83FB07C3A3EBE77349
:1036C80003EB43035B00FB1A052B70D8DFE803F01C
:1036D80003070B0E11150746404200236CE04342D6
:1036E8000746002068E04342002765E04742002380
:1036F80062E04742034600205EE00346404200275E
:103708005AE000BF002C0140000C014000100140AD
:10371800803A000850000020ABAAAA2A58000020CE
:10372800F40100200C000020080000207000002098
:103738006C000020640000205917B7D14800002011
:103748000008014060000020680000204C000020B4
:10375800814B18684742814B1B6803F1010C804B71
:1037680083FB0C83A3EBEC7303EB43035B00C3EB1A
:103778000C03052B04D8DFE803F01E070A0E131705
:1037880000200746034617E00346002014E00346DE
:103798003846002710E03B460746184600230BE052
:1037A8003B460746002007E03B46002704E0002090
:1037B8000746034600E000231D443C447044694B1F
:1037C8001B68002B33DD684BD3F800E0674B1F689C
:1037D8000537634B83FB07C3A3EBE77303EB430393
:1037E8005B00FB1A052B56D8DFE803F003080E121E
:1037F800161C7746CEF1000E002352E0CEF10003EE
:1038080077464FF0000E4CE0CEF10003002748E069
:10381800CEF10007002344E0CEF1000773464FF0D5
:10382800000E3EE07346CEF1000E002739E04E4B05
:10383800D3F800E0CEF100074C4B1B6803F1010CF4
:10384800474B83FB0C83A3EBEC7303EB43035B0055
:10385800C3EB0C03052B04D8DFE803F022080C1097
:10386800151A4FF0000E774673461AE073464FF06C
:10387800000E16E07346BE46002712E03B46774628
:103888009E4600230DE03B4677464FF0000E08E0C9
:103898003B46002705E04FF0000E7746734600E0F0
:1038A800002319443A440EEB060305F57A7540F2F5
:1038B800C676B54203DC0A2DB8BF0A2501E040F2FE
:1038C800C6752B4E756304F57A7440F2C675AC4222
:1038D80003DC0A2CB8BF0A2401E040F2C674244D68
:1038E800AC6300F57A7040F2C674A04203DC0A2883
:1038F800B8BF0A2001E040F2C6701D4CE06301F534
:103908007A7140F2C670814203DC0A29B8BF0A21E5
:1039180001E040F2C6711748416302F57A7240F23D
:10392800C6718A4203DC0A2AB8BF0A2201E040F2C3
:10393800C67210498A6303F57A7340F2C6729342DD
:1039480003DC0A2BB8BF0A2301E040F2C673094A18
:10395800D363BDE8F08100BF4C0000205000002078
:10396800ABAAAA2A680000205400002058000020B2
:1039780000340140002C0140704700BFFEE700BF43
:10398800FEE700BFFEE700BFFEE700BF704700BFCD
:10399800704700BF704700BF08B5FEF771FCFEF71F
:1039A800ABFA08BD002103E00B4B5B5843500431D0
:1039B8000A480B4B42189A42F6D30A4A02E00023FF
:1039C80042F8043B084B9A42F9D3FEF789FE00F00F
:1039D8000FF8FFF709FA7047903A00080000002036
:1039E80024000020240000206C020020FEE70000D4
:1039F8000E4B70B51E460E4C0025E41AA410A542C5
:103A080004D056F8253098470135F8E700F016F845
:103A1800084B094C1E46E41AA4100025A54204D000
:103A280056F8253098470135F8E770BD883A000800
:103A3800883A0008883A00088C3A0008F8B500BFB0
:103A4800F8BC08BC9E467047F8B500BFF8BC08BC77
:043A58009E467047CF
:103A5C0002030405060708090A0B0C0D0E0F1010C3
:103A6C00010200000000000000000000010203043D
:0C3A7C0006070809000002010405030011
:043A880055020008DB
:043A8C002D020008FF
:103A900000A24A0464000000D0070000D007000024
:103AA000D0070000D007000000002042D00700002F
:043AB000D00700003B
:04000005080039AD09
:00000001FF
